{
  "address": "0xc85425c3B6B4b39Ac520008AE1601C79151B86F2",
  "abi": [
    {
      "inputs": [
        {
          "internalType": "address",
          "name": "priceFeedAddress",
          "type": "address"
        }
      ],
      "stateMutability": "nonpayable",
      "type": "constructor"
    },
    {
      "inputs": [],
      "name": "FundMe__NotOwner",
      "type": "error"
    },
    {
      "inputs": [],
      "name": "MINIMUM_USD",
      "outputs": [
        {
          "internalType": "uint256",
          "name": "",
          "type": "uint256"
        }
      ],
      "stateMutability": "view",
      "type": "function"
    },
    {
      "inputs": [],
      "name": "fund",
      "outputs": [],
      "stateMutability": "payable",
      "type": "function"
    },
    {
      "inputs": [
        {
          "internalType": "address",
          "name": "adr",
          "type": "address"
        }
      ],
      "name": "getAmountFromAddress",
      "outputs": [
        {
          "internalType": "uint256",
          "name": "",
          "type": "uint256"
        }
      ],
      "stateMutability": "view",
      "type": "function"
    },
    {
      "inputs": [
        {
          "internalType": "uint256",
          "name": "index",
          "type": "uint256"
        }
      ],
      "name": "getFunder",
      "outputs": [
        {
          "internalType": "address",
          "name": "",
          "type": "address"
        }
      ],
      "stateMutability": "view",
      "type": "function"
    },
    {
      "inputs": [],
      "name": "getOwner",
      "outputs": [
        {
          "internalType": "address",
          "name": "",
          "type": "address"
        }
      ],
      "stateMutability": "view",
      "type": "function"
    },
    {
      "inputs": [],
      "name": "s_priceFeed",
      "outputs": [
        {
          "internalType": "contract AggregatorV3Interface",
          "name": "",
          "type": "address"
        }
      ],
      "stateMutability": "view",
      "type": "function"
    },
    {
      "inputs": [],
      "name": "viewPriceFeed",
      "outputs": [
        {
          "internalType": "contract AggregatorV3Interface",
          "name": "",
          "type": "address"
        }
      ],
      "stateMutability": "view",
      "type": "function"
    },
    {
      "inputs": [],
      "name": "withdraw",
      "outputs": [],
      "stateMutability": "payable",
      "type": "function"
    }
  ],
  "transactionHash": "0xd53d76ca2ca1f18a6e98e787b635df85905f26d56c6f69a11c1f3e9823a53936",
  "args": [
    "0x694AA1769357215DE4FAC081bf1f309aDC325306"
  ],
  "numDeployments": 3,
  "solcInputHash": "f124fb62ffe89ecfdfabc17925089df4",
  "bytecode": "0x60a06040523480156200001157600080fd5b50604051620010d9380380620010d98339818101604052810190620000379190620000cd565b3373ffffffffffffffffffffffffffffffffffffffff1660808173ffffffffffffffffffffffffffffffffffffffff1660601b8152505080600260006101000a81548173ffffffffffffffffffffffffffffffffffffffff021916908373ffffffffffffffffffffffffffffffffffffffff1602179055505062000152565b600081519050620000c78162000138565b92915050565b600060208284031215620000e657620000e562000133565b5b6000620000f684828501620000b6565b91505092915050565b60006200010c8262000113565b9050919050565b600073ffffffffffffffffffffffffffffffffffffffff82169050919050565b600080fd5b6200014381620000ff565b81146200014f57600080fd5b50565b60805160601c610f5a6200017f6000396000818161022b0152818161042101526104fa0152610f5a6000f3fe60806040526004361061007b5760003560e01c8063893d20e81161004e578063893d20e81461011d57806390d0378314610148578063b60d428814610173578063d7b4750c1461017d5761007b565b80630e61afb8146100805780630ec3b027146100bd5780633ccfd60b146100e85780636b69a592146100f2575b600080fd5b34801561008c57600080fd5b506100a760048036038101906100a291906108b2565b6101ba565b6040516100b49190610aa8565b60405180910390f35b3480156100c957600080fd5b506100d2610203565b6040516100df9190610a4d565b60405180910390f35b6100f0610229565b005b3480156100fe57600080fd5b506101076104ed565b6040516101149190610aa8565b60405180910390f35b34801561012957600080fd5b506101326104f6565b60405161013f9190610a32565b60405180910390f35b34801561015457600080fd5b5061015d61051e565b60405161016a9190610a4d565b60405180910390f35b61017b610548565b005b34801561018957600080fd5b506101a4600480360381019061019f91906108df565b61067f565b6040516101b19190610a32565b60405180910390f35b6000600160008373ffffffffffffffffffffffffffffffffffffffff1673ffffffffffffffffffffffffffffffffffffffff168152602001908152602001600020549050919050565b600260009054906101000a900473ffffffffffffffffffffffffffffffffffffffff1681565b7f000000000000000000000000000000000000000000000000000000000000000073ffffffffffffffffffffffffffffffffffffffff163373ffffffffffffffffffffffffffffffffffffffff16146102ae576040517f579610db00000000000000000000000000000000000000000000000000000000815260040160405180910390fd5b60008080548060200260200160405190810160405280929190818152602001828054801561033157602002820191906000526020600020905b8160009054906101000a900473ffffffffffffffffffffffffffffffffffffffff1673ffffffffffffffffffffffffffffffffffffffff16815260200190600101908083116102e7575b5050505050905060005b81518110156103bc57600082828151811061035957610358610e10565b5b602002602001015190506000600160008373ffffffffffffffffffffffffffffffffffffffff1673ffffffffffffffffffffffffffffffffffffffff168152602001908152602001600020819055505080806103b490610d69565b91505061033b565b50600067ffffffffffffffff8111156103d8576103d7610e3f565b5b6040519080825280602002602001820160405280156104065781602001602082028036833780820191505090505b506000908051906020019061041c9291906107a2565b5060007f000000000000000000000000000000000000000000000000000000000000000073ffffffffffffffffffffffffffffffffffffffff164760405161046390610a1d565b60006040518083038185875af1925050503d80600081146104a0576040519150601f19603f3d011682016040523d82523d6000602084013e6104a5565b606091505b50509050806104e9576040517f08c379a00000000000000000000000000000000000000000000000000000000081526004016104e090610a68565b60405180910390fd5b5050565b64746a52880081565b60007f0000000000000000000000000000000000000000000000000000000000000000905090565b6000600260009054906101000a900473ffffffffffffffffffffffffffffffffffffffff16905090565b64746a528800610583600260009054906101000a900473ffffffffffffffffffffffffffffffffffffffff16346106c690919063ffffffff16565b10156105c4576040517f08c379a00000000000000000000000000000000000000000000000000000000081526004016105bb90610a88565b60405180910390fd5b6000339080600181540180825580915050600190039060005260206000200160009091909190916101000a81548173ffffffffffffffffffffffffffffffffffffffff021916908373ffffffffffffffffffffffffffffffffffffffff16021790555034600160003373ffffffffffffffffffffffffffffffffffffffff1673ffffffffffffffffffffffffffffffffffffffff16815260200190815260200160002060008282546106769190610adf565b92505081905550565b600080828154811061069457610693610e10565b5b9060005260206000200160009054906101000a900473ffffffffffffffffffffffffffffffffffffffff169050919050565b6000806106d283610702565b90506000670de0b6b3a764000085836106eb9190610c7d565b6106f59190610b35565b9050809250505092915050565b6000808273ffffffffffffffffffffffffffffffffffffffff1663feaf968c6040518163ffffffff1660e01b815260040160a06040518083038186803b15801561074b57600080fd5b505afa15801561075f573d6000803e3d6000fd5b505050506040513d601f19601f82011682018060405250810190610783919061090c565b5050509150506402540be4008161079a9190610b66565b915050919050565b82805482825590600052602060002090810192821561081b579160200282015b8281111561081a5782518260006101000a81548173ffffffffffffffffffffffffffffffffffffffff021916908373ffffffffffffffffffffffffffffffffffffffff160217905550916020019190600101906107c2565b5b509050610828919061082c565b5090565b5b8082111561084557600081600090555060010161082d565b5090565b60008135905061085881610ec8565b92915050565b60008151905061086d81610edf565b92915050565b60008135905061088281610ef6565b92915050565b60008151905061089781610ef6565b92915050565b6000815190506108ac81610f0d565b92915050565b6000602082840312156108c8576108c7610e6e565b5b60006108d684828501610849565b91505092915050565b6000602082840312156108f5576108f4610e6e565b5b600061090384828501610873565b91505092915050565b600080600080600060a0868803121561092857610927610e6e565b5b60006109368882890161089d565b95505060206109478882890161085e565b945050604061095888828901610888565b935050606061096988828901610888565b925050608061097a8882890161089d565b9150509295509295909350565b61099081610cd7565b82525050565b61099f81610d33565b82525050565b60006109b2600b83610ace565b91506109bd82610e73565b602082019050919050565b60006109d5601283610ace565b91506109e082610e9c565b602082019050919050565b60006109f8600083610ac3565b9150610a0382610ec5565b600082019050919050565b610a1781610d13565b82525050565b6000610a28826109eb565b9150819050919050565b6000602082019050610a476000830184610987565b92915050565b6000602082019050610a626000830184610996565b92915050565b60006020820190508181036000830152610a81816109a5565b9050919050565b60006020820190508181036000830152610aa1816109c8565b9050919050565b6000602082019050610abd6000830184610a0e565b92915050565b600081905092915050565b600082825260208201905092915050565b6000610aea82610d13565b9150610af583610d13565b9250827fffffffffffffffffffffffffffffffffffffffffffffffffffffffffffffffff03821115610b2a57610b29610db2565b5b828201905092915050565b6000610b4082610d13565b9150610b4b83610d13565b925082610b5b57610b5a610de1565b5b828204905092915050565b6000610b7182610ce9565b9150610b7c83610ce9565b9250827f7fffffffffffffffffffffffffffffffffffffffffffffffffffffffffffffff0482116000841360008413161615610bbb57610bba610db2565b5b817f80000000000000000000000000000000000000000000000000000000000000000583126000841260008413161615610bf857610bf7610db2565b5b827f80000000000000000000000000000000000000000000000000000000000000000582126000841360008412161615610c3557610c34610db2565b5b827f7fffffffffffffffffffffffffffffffffffffffffffffffffffffffffffffff0582126000841260008412161615610c7257610c71610db2565b5b828202905092915050565b6000610c8882610d13565b9150610c9383610d13565b9250817fffffffffffffffffffffffffffffffffffffffffffffffffffffffffffffffff0483118215151615610ccc57610ccb610db2565b5b828202905092915050565b6000610ce282610cf3565b9050919050565b6000819050919050565b600073ffffffffffffffffffffffffffffffffffffffff82169050919050565b6000819050919050565b600069ffffffffffffffffffff82169050919050565b6000610d3e82610d45565b9050919050565b6000610d5082610d57565b9050919050565b6000610d6282610cf3565b9050919050565b6000610d7482610d13565b91507fffffffffffffffffffffffffffffffffffffffffffffffffffffffffffffffff821415610da757610da6610db2565b5b600182019050919050565b7f4e487b7100000000000000000000000000000000000000000000000000000000600052601160045260246000fd5b7f4e487b7100000000000000000000000000000000000000000000000000000000600052601260045260246000fd5b7f4e487b7100000000000000000000000000000000000000000000000000000000600052603260045260246000fd5b7f4e487b7100000000000000000000000000000000000000000000000000000000600052604160045260246000fd5b600080fd5b7f43616c6c206661696c6564000000000000000000000000000000000000000000600082015250565b7f4469646e27742073656e6420656e6f7567680000000000000000000000000000600082015250565b50565b610ed181610cd7565b8114610edc57600080fd5b50565b610ee881610ce9565b8114610ef357600080fd5b50565b610eff81610d13565b8114610f0a57600080fd5b50565b610f1681610d1d565b8114610f2157600080fd5b5056fea26469706673582212207f240ed1e1e26f605d60c459ee1404296dc9666b1ad557b57940d015724feebf64736f6c63430008070033",
  "devdoc": {
    "author": "Daniel Jimenez",
    "details": "This implements price feeds as our libraries",
    "kind": "dev",
    "methods": {},
    "title": "A contract for crow funding",
    "version": 1
  },
  "userdoc": {
    "kind": "user",
    "methods": {},
    "notice": "This contract is to demo a sample funding contract",
    "version": 1
  },
  "storageLayout": {
    "storage": [
      {
        "astId": 64,
        "contract": "contracts/FundMe.sol:FundMe",
        "label": "s_funders",
        "offset": 0,
        "slot": "0",
        "type": "t_array(t_address)dyn_storage"
      },
      {
        "astId": 68,
        "contract": "contracts/FundMe.sol:FundMe",
        "label": "s_adressToAmountFunded",
        "offset": 0,
        "slot": "1",
        "type": "t_mapping(t_address,t_uint256)"
      },
      {
        "astId": 73,
        "contract": "contracts/FundMe.sol:FundMe",
        "label": "s_priceFeed",
        "offset": 0,
        "slot": "2",
        "type": "t_contract(AggregatorV3Interface)45"
      }
    ],
    "types": {
      "t_address": {
        "encoding": "inplace",
        "label": "address",
        "numberOfBytes": "20"
      },
      "t_array(t_address)dyn_storage": {
        "base": "t_address",
        "encoding": "dynamic_array",
        "label": "address[]",
        "numberOfBytes": "32"
      },
      "t_contract(AggregatorV3Interface)45": {
        "encoding": "inplace",
        "label": "contract AggregatorV3Interface",
        "numberOfBytes": "20"
      },
      "t_mapping(t_address,t_uint256)": {
        "encoding": "mapping",
        "key": "t_address",
        "label": "mapping(address => uint256)",
        "numberOfBytes": "32",
        "value": "t_uint256"
      },
      "t_uint256": {
        "encoding": "inplace",
        "label": "uint256",
        "numberOfBytes": "32"
      }
    }
  }
}